:020000040800F2
:10000000008001208D320008DD2C0008DF2C000864
:10001000E12C0008E32C0008E52C0008000000009B
:10002000000000000000000000000000E72C0008B5
:10003000E92C000800000000EB2C0008ED2C000863
:10004000DD320008DD320008DD320008DD32000854
:10005000DD320008DD320008DD320008DD32000844
:10006000DD320008DD320008DD320008DD32000834
:10007000DD320008DD320008DD320008DD32000824
:10008000DD320008DD320008DD320008DD32000814
:10009000DD320008DD320008DD320008DD32000804
:1000A000DD320008DD320008DD320008DD320008F4
:1000B000DD320008DD320008DD320008DD320008E4
:1000C000DD320008DD320008DD320008DD320008D4
:1000D000DD320008DD320008DD320008DD320008C4
:1000E000DD320008DD320008DD320008DD320008B4
:1000F000DD320008DD320008DD320008DD320008A4
:10010000DD320008DD320008DD320008DD32000893
:10011000DD320008DD320008DD320008DD32000883
:10012000DD320008DD320008DD320008DD32000873
:10013000DD320008DD320008DD320008DD32000863
:10014000DD320008DD320008DD320008DD32000853
:10015000DD320008DD320008DD320008DD32000843
:10016000DD320008DD320008DD320008DD32000833
:10017000DD320008DD320008DD320008000000003A
:08018000DD320008DD32000849
:1001880010B5054C237833B9044B13B10448AFF3C9
:1001980000800123237010BD24000020000000000F
:1001A8005033000808B5034B1BB103490348AFF3AC
:1001B800008008BD0000000028000020503300081F
:1001C800034613F8012B002AFBD1181A013870478F
:1001D80053B94AB9002908BF00281CBF4FF0FF31A6
:1001E8004FF0FF3000F07AB9ADF1080C6DE904CE9C
:1001F80000F006F8DDF804E0DDE9022304B07047FA
:100208002DE9F0478C460D460446089E002B51D137
:100218008A4217466DD9B2FA82FEBEF1000F0BD0A2
:10022800CEF1200C01FA0EF520FA0CFC02FA0EF7BA
:100238004CEA050C00FA0EF44FEA174A250CBCFBF1
:10024800FAF81FFA87F90AFB18CC45EA0C4508FBAF
:1002580009F3AB420AD9ED1908F1FF3280F0238186
:10026800AB4240F22081A8F102083D44ED1AA4B245
:10027800B5FBFAF00AFB105544EA054400FB09F9FE
:10028800A14509D9E41900F1FF3380F00A81A1459D
:1002980040F2078102383C44A4EB090440EA0840D4
:1002A8000021002E61D024FA0EF40023346073601C
:1002B800BDE8F0878B4207D9002E54D0002186E88C
:1002C80021000846BDE8F087B3FA83F1002940F021
:1002D8008E80AB4202D3824200F2FA80841A65EB28
:1002E80003050120AC46002E3FD086E81010BDE87B
:1002F800F08712B90127B7FBF2F7B7FA87FEBEF10C
:10030800000F34D1EB1B3A0C1FFA87FC0121B3FB19
:10031800F2F8250C02FB183345EA03450CFB08F3F9
:10032800AB4207D9ED1908F1FF3002D2AB4200F217
:10033800D1808046ED1AA3B2B5FBF2F002FB10554E
:1003480043EA05440CFB00FCA44507D9E41900F175
:10035800FF3302D2A44500F2B8801846A4EB0C047F
:1003680040EA08409DE731463046BDE8F087CEF1C7
:10037800200405FA0EF307FA0EF720FA04F83A0CEF
:1003880025FA04F448EA0308B4FBF2F14FEA1845E9
:1003980002FB11441FFA87FC45EA044501FB0CF3F4
:1003A800AB4200FA0EF409D9ED1901F1FF3080F0E3
:1003B8008A80AB4240F2878002393D44EB1A1FFA2B
:1003C80088F5B3FBF2F002FB103345EA034500FB66
:1003D8000CF3AB4207D9ED1900F1FF386FD2AB42ED
:1003E8006DD902383D44EB1A40EA01418FE7C1F16B
:1003F800200722FA07F88B4005FA01F448EA0303BC
:1004080020FA07FE4FEA134CFD404EEA040EB5FBF6
:10041800FCF94FEA1E440CFB19551FFA83F844EA0D
:10042800054509FB08F4AC4202FA01F200FA01FAA8
:1004380008D9ED1809F1FF3043D2AC4241D9A9F1EE
:1004480002091D442D1B1FFA8EFEB5FBFCF00CFBA8
:1004580010554EEA054400FB08F8A04507D9E418F2
:1004680000F1FF3529D2A04527D902381C4440EABB
:100478000940A4EB0804A0FB02894C45C6464D463A
:1004880015D312D056B1BAEB0E0364EB050404FA87
:1004980007F7CB401F43CC40376074600021BDE8AC
:1004A800F0871846F8E69046E0E6C245EAD2B8EB8F
:1004B800020E69EB03050138E4E72846D7E7404612
:1004C80091E78146BEE7014678E702383C4445E7B4
:1004D800084608E7A8F102083D442BE7704700BF2B
:1004E800F0B501F1100203460C781C704C785C7072
:1004F8008C789C70CC78DC700431914203F1040351
:10050800F2D1134E134F042212F0030F037B457BE5
:10051800847BC17B08D116F805E0355D745CF15C1D
:100528009308FB5C8EEA030390F800E083EA0E036D
:10053800037443785D40837845745C40C378847461
:10054800013259402C2AC17400F10400DCD1F0BDFD
:10055800873400087C33000870B502EB00120C1DCC
:100568001431231F154615F8010B1E78704003F847
:10057800010BA342F7D11C1D8C4202F10402F0D1F9
:1005880070BDC3095A00134403EBC30383EA400058
:10059800C0B270472DE9F04F8FB0044603910A4668
:1005A80001460A20FFF7D8FF09230293231D0A9367
:1005B80004F110030B93627A637B6273627962724F
:1005C80062786271A27A6370A378A270A27BA37228
:1005D800A379A271E279A373E378E270E27AE27117
:1005E800E27BE272E373A3462746002317F8232031
:1005F80069498A5C07F823200133042BF6D10A9B4A
:100608000137BB42F1D1039A02982146FFF7A4FFB4
:10061800264633780093009873780193FFF7B1FF6B
:100628000490FFF7AEFF0590FFF7ABFF0D90019820
:10063800B57896F803A0FFF7A4FF0146FFF7A1FFDE
:100648000690FFF79EFF81462846FFF79AFF0C9019
:10065800FFF797FF0790FFF794FF80465046FFF794
:1006680090FF0890FFF78DFF0990FFF78AFF049B22
:10067800059A83EA020E0D9B079A83EA0E0E81EA19
:100688000E0E89EA0E0E82EA0E0E88EA0E0E019A06
:1006980080EA0E0E82EA0E0E85EA0E0E069A8AEAA5
:1006A8000E0E594086F800E05140DDF830E0099A16
:1006B80089EA010181EA0E0188EA01015140009AA4
:1006C800414051406940059A8AEA0101717082EA05
:1006D800030189EA01018EEA010207994A40089953
:1006E80088EA02024A40009942404A4001994A4039
:1006F8008AEA020A049A86F802A05340069A5340EE
:1007080089EA0309089B88EA090883EA0808099B1B
:1007180083EA0808009B80EA08005840484068407F
:100728000B9BF0700436B3427FF473AF029B013B1E
:1007380013F0FF0302937FF43EAF627A637B627328
:100748006279627262786271A27A6370A378A27029
:10075800A27BA372A379A271E279A373E378E27012
:10076800E27AE271E27BE2720B4AE37300231BF840
:100778002310515C0BF823100133042BF7D10BF134
:10078800010B5F45F2D1039A214600200FB0BDE866
:10079800F04FFFF7E1BE00BF87330008FFF7A0BEA8
:1007A8000B4601461846FFF7F5BE00000FB430B5FA
:1007B800CDB050AC002154F8045B01914FF4947211
:1007C80002A802F0B8FD23462A464FF4967101A804
:1007D800009400F0E5FA01A8FFF7F2FC084C82B299
:1007E80001A9FA23204602F046F8FA230222054915
:1007F800204602F040F84DB0BDE8304004B07047E4
:10080800A8010020873500082DE9F84FD2F810A07C
:10081800D66880468946934600270124002522464B
:100828002B4640464946FFF7D3FCB94208BFB042C1
:1008380008D2002654EA05030CD100238AF80030B8
:10084800BDE8F88F04FB07F306FB0533A4FB064558
:100858001D44E4E722462B4640464946FFF7B8FCCC
:1008680022462B46494607464046FFF7B1FC20463C
:10087800294690469946DBF80C200023FFF7A8FC90
:1008880004460D4626B9002F02DC54EA0503D1D1EF
:10089800092F0AF101020CDD9BF8003013F0040F58
:1008A80014BF372357231F448AF800700136924635
:1008B800C0E73023F7E7F0B50A69CC680123B0FB3D
:1008C800F3F5A54203D200261BB91370F0BD6343AC
:1008D800F5E7B0FBF3F5CC6803FB1500B3FBF4F3C5
:1008E8001EB9002D01DC002BEED1092D02F1010704
:1008F8000ADD0C7814F0040F14BF372457242C4455
:10090800147001363A46DFE73024F8E7F0B50A6993
:10091800CC680123B0FBF3F5A54203D200261BB92E
:100928001370F0BD6343F5E7B0FBF3F5CC6803FB48
:100938001500B3FBF4F31EB9002D01DC002BEED13A
:10094800092D02F101070ADD0C7814F0040F14BF19
:10095800372457242C44147001363A46DFE73024F4
:10096800F8E72DE9F0411369546806460F46154625
:1009780013F8012B002A44D12B7A002B45D12B7870
:10098800990703D5EA68102A41D1023C13F0090FF0
:1009980008D1A046B8F1000F3EDC631E002CACBFA6
:1009A8001C1B1C46297A09B13046B8472B789A0790
:1009B8000DD5EB68102B35D130213046B8472B7850
:1009C80013F0040F14BF582178213046B8472B780C
:1009D800DB0708D5A046B8F1000F27DC631E002C02
:1009E800ACBF1C1B1C46D5F8108018F8011B19BB9E
:1009F8002B7803F00903082B01D1002C1FDCBDE87C
:100A0800F081002CB8DD013CB2E7013CB7E7082AC9
:100A180008BF04F1FF34B9E720213046B84708F190
:100A2800FF38B7E7082BD2D13021CEE73021304646
:100A3800B84708F1FF38CEE73046B847D5E7202158
:100A48003046B847013CD8E78368026893423CBF08
:100A58004268D15483680133836070472DE9F047B9
:100A68008CB006AE804689461C4605961178571C00
:100A780011B90CB0BDE8F087252902D04046C84717
:100A880097E09DF80430002203F0FC0362F3C303EF
:100A980002928DF804308DF80C2096461146944643
:100AA800104692463D4615F8013B002B49D128B126
:100AB8009DF804006AF3C3008DF8040029B19DF87D
:100AC80004106CF300018DF804102AB19DF804207D
:100AD8006EF341028DF80420A3F13002092A0FD8E1
:100AE80000210A20A3F13002D7B2092F39D9A3F186
:100AF8006102052A3AD8A3F157020A2A31DD029188
:100B08002E2B0BD19DF8043043F001038DF80430EF
:100B180015F8013BA3F13002092AF9D97A2B2CD117
:100B28002B786F1C692B0AD000F2DF80582B00F05D
:100B3800E58032D9632B00F0C380642B39D10123BF
:100B48007DE02D2B06D0302B08D0232BAFD10122EE
:100B5800964601E0012082462F46A3E701218C46F4
:100B6800FAE700FB012115F8013BBBE7A3F14102BD
:100B7800052AC4D8A3F13702BFE76C2B40F0CE801A
:100B88002B786C2B40F0AF806B78692B05F102074E
:100B980054D010D8582B1CD006D8002B3FF469AF7E
:100BA800252B00F09E8004E0632B00F08980642BE5
:100BB80044D03A465AE7732B00F0888005D86F2B4B
:100BC8006FD0702B00F0C680F3E7752B14D0782B0C
:100BD800EFD110220492A3F1580253429DF8041059
:100BE800534163F382010CAAE31D23F0070302F8C3
:100BF8002C1D03F108040AE002230A22022B0492A6
:100C08000DD1E31D23F0070303F1080401AAD3E97A
:100C180000012BE00123F0E72F460023EDE7012B2D
:100C280001A9206804F1040537D1FFF744FE2C46DA
:100C380001AA49464046FFF794FEBAE702230A2272
:100C4800022B049215D1E31D23F00703D3E9000119
:100C5800002803F1080471F1000306DA40424FF05E
:100C68002D0361EB41018DF80C3001AAFFF7CCFD93
:100C7800DEE7012B206804F1040507D10028BEBF78
:100C88002D2340428DF80C3001A9CEE70028BEBFC5
:100C98002D2340428DF80C3001A9FFF737FEC6E737
:100CA8002F46082301A920680493FFF72FFE01AA05
:100CB80049464046251DFFF754FE2C4679E72F4646
:100CC80021784046251DC847F7E72F462368059336
:100CD80001AA49464046FFF744FE251D0596ECE764
:100CE8002F462521CAE66F1C1CE7732BEED07FF632
:100CF80066AF752B8ED0782B7FF45BAFA3F15800CD
:100D08001022434204929DF8042043410CA963F346
:100D1800820201F82C2D251D206886E7692B0ED04C
:100D280010D8582B2FD006D8002B3FF4A2AE252B75
:100D3800D6D02F463DE7632BC1D0642BF9D12F467F
:100D480000237CE7732BC0D018D86F2BA8D0702B4A
:100D5800EFD12F469DF8043043F0020310226FF3C1
:100D6800820304928DF804303D46206804F1040A99
:100D780001A9FFF7CBFD2F46544659E7752B3FF4E1
:100D88004BAF782BD5D11022A3F1580104924B42D6
:100D98009DF804204B4163F382028DF80420E4E7B8
:100DA8001FB5002489B101390290019101A80849B1
:100DB8000394FFF753FE0399019B029A994234BFAB
:100DC8005454D454039804B010BD0846FBE700BF40
:100DD800510A00087047000010B5094B4FF0FF3268
:100DE80000249A639C631A641C649A629C62DA62A7
:100DF800DC621A631C63FFF7EDFF204610BD00BFDD
:100E08000010024038B50A4B054618684FF47A734B
:100E1800B0FBF3F000F086F8044638B902462946DC
:100E28004FF0FF3000F04AF8204638BD012038BDA9
:100E380020000020094A136843F4807310B503208A
:100E4800136000F029F80020FFF7DCFF044618B90A
:100E580001F028FF204610BD0124FBE700200240D6
:100E6800024A136801331360704700BF4000002036
:100E7800014B1868704700BF4000002038B5044691
:100E8800FFF7F6FF631C054618BF0134FFF7F0FFB4
:100E9800401B8442FAD838BD074AD36823F4E0637C
:100EA8001B041B0C43F0BF63000243F4003300F43F
:100EB800E0600343D360704700ED00E0174B30B5A6
:100EC800DC68C4F30224C4F10703251D042B28BFE2
:100ED8000423062D4FF0010505FA03F303F1FF3350
:100EE8008CBF033C00241940A14005FA04F4013CDE
:100EF8002240002842EA01024FEA0212AFBF00F185
:100F0800604000F00F00064BD2B2A5BF00F561406B
:100F1800D2B21A5480F8002330BD00BF00ED00E0C3
:100F280014ED00E00138B0F1807F0AD2064B074A81
:100F38005860F02182F823100020072298601A6078
:100F480070470120704700BF10E000E000ED00E0AE
:100F580010B5044608B9012010BD437F03F0FF0215
:100F680013B9027701F0CAFD022363772379E3B945
:100F78002368134A5A619A6822F018029A606279C3
:100F88002368D2B94FF0FF321A619A68616922F07A
:100F980060020A439A609A68A16922F080020A43B3
:100FA8009A6001236377002010BDE268A16820469B
:100FB80000F008F80028E2D0CDE72269E4E700BF96
:100FC800B71DC10410B51F2313F1FF3306D321FA4F
:100FD80003F4E407F8D5082A14D009D872B90068D0
:100FE8004161836823F018031A438260002010BD12
:100FF800102A05D0182A01D1062BF0D9012010BDDE
:10100800072BFAE70F2BF8E7074A536943F48023C5
:10101800536172B601F58073401A0A680A500431A8
:101028009942FAD162B6704700200240064B5A69CD
:10103800002ABFBF054A9A6002F188329A60BABF97
:101048005869C00F002070470020024023016745FF
:10105800034A536943F0004353610020704700BFBF
:101068000020024070B50546FFF702FF194C0646FE
:101078002369DB031CD42369A06923F4705323F08C
:1010880005031B041B0C00F00040184319D0124A3A
:1010980053680343536010F040431EBFA2691343D3
:1010A800A36130F0404001D00A4B1861012070BDA7
:1010B8006A1CDDD0FFF7DCFE801B8542D8D80320F0
:1010C80070BD236913F0010302D00123236170BDB1
:1010D800184670BD00200240000000202DE9F047AE
:1010E800244C9A462378012B0746884691463FD0E0
:1010F80001234CF250302370FFF7B4FF064620BBA3
:1011080060601D48056815F4806517BF036825777A
:1011180023F4806303601CBF02232377D7B9456992
:1011280045F001054561C8F800900125C8F804A0FC
:101138004CF25030FFF796FF064625B10E4A536928
:1011480023EA0505556100F0DDF8002323703046D9
:10115800BDE8F0877B1E012B01D90025E8E7494649
:101168004046FFF751FF022FF7D14FF48025DFE704
:101178000226ECE70000002000200240094B10F096
:10118800010F1EBF5A6942F004025A61820742BF2A
:101198005A6942F400425A615A6942F480325A61EB
:1011A800704700BF0020024042680623022A30B57B
:1011B800036001D9042A0BD1072303603C4B002AA2
:1011C8002FD1DA6AD2B28260DB6AC3F30743C36005
:1011D800374B1A6AD2B2AA2A01D0CC2A36D11A6A57
:1011E800D2B202611B6AC46923F0FF038361631EE4
:1011F800012B4BD8036843F0080303602D4B1B6891
:1012080013F4807F4FF6FF752B4B21D11A68AA4241
:101218003DD02A4B03EA422303F100624FF00061FC
:1012280020E0012A04D11A6BD2B282601B6BCCE792
:10123800022A04D1DA6CD2B28260DB6CC5E7042AD8
:10124800C6D11A6DD2B282601B6DBEE7BB22C8E759
:101258001968A9421DD0194B03EA412303F1006123
:101268004FF00062012C124D154B16D16A6A03EA41
:10127800C2020A440262AA6A03EAC2030B44436236
:101288000B4B9B6A03F000432343C36130BD0D4AF7
:10129800C4E74FF000620B49E4E7696C03EAC10157
:1012A80011440162A96C03EAC1031344E7E700BFD4
:1012B8000020024000000140E075FF1F00FE1F00F3
:1012C800F8FF0700000008080D4B5A6911F0010FDC
:1012D80014BF22F4006242F400625A615A69C000E5
:1012E80022F4FF6200F4FF60104358615A6942F02B
:1012F80002025A615A6942F480325A61704700BF4B
:101308000020024013490B7FDBB203F0FD02012AE3
:101318000CD1114A106840F400601060106820F485
:1013280000601060106840F400701060023B012BF0
:101338000CD8094B1A6842F480521A601A6822F4D1
:1013480080521A601A6842F480621A6000230B7790
:10135800704700BF00000020002002402DE9F04740
:10136800354C2378012B0646884662D001274CF27B
:1013780050302770FFF776FE054640BB2F4B606064
:101388001A6812F4007F1A6826D022F400721A60D4
:101398001A68510506D51A6822F480621A60032378
:1013A800237700E027773368012B1FD17068FFF798
:1013B800E5FE4CF25030FFF755FE204A536923F4FE
:1013C800004323F0040305465361FFF79BFF002306
:1013D80023702846BDE8F087520505D51A6822F41F
:1013E80080621A600223DBE72077DCE74FF0FF33E7
:1013F800C8F80030B768DFF84490DFF844A0B36855
:10140800F26813449F42E0D271683846FFF75CFFE8
:101418004CF25030FFF726FED9F8143003EA0A03DD
:10142800C9F8143018B1C8F800700546CDE701377F
:10143800E5E70225CDE700BF0000002000200240BC
:1014480005F8FFFF2DE9F04F85B00B68DFF8A8819C
:10145800674C01930023019ADA4002D105B0BDE838
:10146800F08F0126019A9E4012EA060E00F0B18024
:101478004A6822F01007022F16D14FEAD30900EB71
:10148800890903F0070AD9F820504FEA8A0A4FF071
:101498000F0C0CFA0AFC25EA0C0C0D6905FA0AF582
:1014A80045EA0C05C9F820504FEA430C0325D0F84B
:1014B80000B005FA0CF5ED4302F0030A0BEA050B40
:1014C8000AFA0CF9013F49EA0B09012FC0F800900C
:1014D80011D8876805EA0709CF6807FA0CF747EAC1
:1014E80009078760476827EA0609C2F300179F4083
:1014F80047EA09074760BAF1030F07D1C76A27EA25
:101508000606C2F3C0079F403E43C662C668354020
:101518008E6806FA0CF63543C560D50059D5D8F85B
:10152800605045F00105C8F86050D8F8605023F0C5
:10153800030606F1804605F0010506F58036039599
:1015480003F0030C039DB5684FEA8C0C0F2707FACC
:101558000CF7B0F1904F25EA07073CD0254DA8427B
:101568003BD005F58065A84239D005F58065A842CD
:1015780037D005F58065A84235D005F58065A842C5
:1015880033D005F58065A84214BF0725062505FA5E
:101598000CF53D43B56025686FEA0E06D70354BFC6
:1015A80035404EEA050525606568970354BF354008
:1015B8004EEA05056560A568D70254BF35404EEA76
:1015C8000505A560E568920254BF35404EEA050559
:1015D800E56001333FE70025D9E70125D7E7022574
:1015E800D5E70325D3E70425D1E70525CFE700BFD5
:1015F8000004014000040048001002400369194239
:1016080014BF0120002070470AB1816170478162D0
:10161800704743695940416170470000024B1868A0
:1016280000F4C060704700BF00700040174B1A6894
:10163800B0F5007F02F4C0621CD1B2F5007F15D06E
:101648001A6822F4C06242F400721A60104A1168E3
:1016580032224A430F49B2FBF1F219460132586966
:10166800400500D522B94B695B050DD400207047B1
:10167800013AF4E7B2F5806F1FBF1A6822F4C0621E
:1016880042F480621A60F1E703207047007000405E
:101698002000002040420F0037B51E4DAB6DDA0028
:1016A800044618D5FFF7BAFFB0F5007F23D1802C88
:1016B80029D9A02C8CBF02200120174A136823F0D7
:1016C800070303431360136803F00703181A18BFCE
:1016D800012003B030BDAB6D43F08053AB65AB6DFB
:1016E80003F080530193019BFFF798FFAB6D23F044
:1016F8008053AB65D8E7802C07D808D0A4F17003D5
:1017080058425841D9E70020D7E70320D5E70220FF
:10171800D3E700BF0010024000200240F8B5314C6A
:10172800236843F001032360FFF7A2FB0546236803
:101738009B0741D523682C4A23F0F00343F060034C
:1017480023600020294BA0601A60FFF75BFB054669
:10175800002845D1FFF78CFB41F288370646A3687D
:1017680013F00C0F30D12268214B13402360FFF790
:101778007FFB0646236813F028532BD1E360E26809
:1017880042F48052E2602361226942F4805222616D
:101798006361626942F480526261226822F48022A5
:1017A8002260A3614FF0FF332362D4F8943043F4EE
:1017B8000003C4F8943005E0FFF75AFB401B0228E9
:1017C800B5D903252846F8BDFFF752FB801BB84260
:1017D800C5D9F6E7FFF74CFB801B0228CAD9F0E70A
:1017E8000125EFE70010024000093D00200000201D
:1017F800FFF4FEEA254B9A68D96812F00C0205D06E
:101808000C2A15D101F00301012918D119682048C3
:10181800090755BFD3F894101968C1F30321C1F320
:10182800031150F8210082B30C2A09D00020704718
:10183800042A29D0082A174818BF0020704700201A
:10184800D968DA6801F00301C2F30212022902F131
:10185800010205D0032912D0D968C1F3062103E09B
:10186800D9680D48C1F30621DB68B0FBF2F0C3F379
:101878004163013348435B00B0FBF3F07047D9681C
:101888000448C1F30621EFE70348704700100240FF
:10189800D035000800127A000024F4002DE9F7433F
:1018A800054618B9012003B0BDE8F083A54C0368CC
:1018B800A668E768DB0606F00C0607F003073CD5C8
:1018C8001EB10C2E63D1012F61D12368980702D570
:1018D800AB69002BE6D02368286A190756BFD4F8ED
:1018E800943023681B0903F0F00383423AD2FFF7D0
:1018F800D3FE0028D6D1236843F008032360236869
:101908002A6A23F0F003134323606368EA6923F427
:101918007F4343EA02236360FFF76CFFA3688A4AA8
:10192800C3F30313D35C03F01F03D840874B18603D
:101938000020FFF767FA0028B5D12B68D8075DD4D7
:101948002B68990700F19C802B68180700F1D0805C
:101958002B68590700F1FC80AB6A002B40F06581C9
:101968000020A0E7236843F008032360236823F0DE
:10197800F003034323606368EA6923F47F4343EA7F
:1019880002236360FFF788FE0028C5D08AE7AB69A9
:101998001BB3236843F001032360FFF769FA80460D
:1019A80023689A0711D5236843F008032360236846
:1019B8002A6A23F0F003134323606368EA6923F477
:1019C8007F4343EA02236360B7E7FFF751FAA0EBCE
:1019D80008000228E4D9032065E7236823F00103FF
:1019E8002360FFF745FA804623689B07A5D5FFF7D4
:1019F8003FFAA0EB08000228F6D9ECE7082E03D03E
:101A08000C2E08D1032F06D123689A0398D56B684A
:101A1800002B95D146E76B68B3F5803F10D123685A
:101A280043F480332360FFF723FA804623689B033F
:101A380086D4FFF71DFAA0EB08006428F6D9CAE798
:101A4800B3F5A02F04D1236843F480232360E6E78D
:101A5800226822F480322260226822F480222260E6
:101A6800002BE0D1FFF704FA8046236898037FF53E
:101A780067AFFFF7FDF9A0EB08006428F5D9AAE7DE
:101A8800042E03D00C2E10D1022F0ED12368590535
:101A980003D5EB68002B3FF405AF63682A6923F090
:101AA800F85343EA026363604EE7EB687BB123684F
:101AB80043F480732360FFF7DBF9074623685A0570
:101AC800EBD4FFF7D5F9C01B0228F7D983E72368C1
:101AD80023F480732360FFF7CBF9074623685B057F
:101AE8007FF532AFFFF7C4F9C01B0228F6D972E7B9
:101AF8006B699BB1D4F8943043F00103C4F8943077
:101B0800FFF7B6F90746D4F894309A073FF520AFA7
:101B1800FFF7AEF9C01B0228F5D95CE7D4F894307A
:101B280023F00103C4F89430FFF7A2F90746D4F86C
:101B380094309B077FF50CAFFFF79AF9C01B02287A
:101B4800F5D948E700100240B7350008200000200A
:101B5800A36DD80029D4A36D43F08053A365A36D6A
:101B680003F080530193019B4FF001085D4F3B68E0
:101B7800D9051DD5AB68012B2BD1D4F8903043F093
:101B88000103C4F89030FFF773F941F2883907462A
:101B9800D4F890309B0742D5B8F1000F3FF4DCAE83
:101BA800A36D23F08053A365D6E64FF00008DDE768
:101BB8003B6843F480733B60FFF75AF981463B6802
:101BC800DA05D7D4FFF754F9A0EB09000228F6D9B3
:101BD80001E7052B06D1D4F8903043F00403C4F88C
:101BE8009030CAE7D4F8902022F00102C4F890207F
:101BF800D4F8902022F00402C4F89020002BC2D11F
:101C0800FFF736F941F288390746D4F8903098073B
:101C1800C2D5FFF72DF9C01B4845F6D9DBE6FFF71B
:101C280027F9C01B4845B3D9D5E60C2E3FF43AAE88
:101C3800022B236823F08073236037D1FFF718F94C
:101C48000646236899012BD46A6BEB6A43EA0223A0
:101C58002A6B013A43EA0213AA6B120943EA424388
:101C6800EA6B5208013A43EA42532A6C5208013A95
:101C780043EA4263E360236843F080732360E368C8
:101C880043F08073E360FFF7F3F8054623689A0191
:101C98003FF566AEFFF7ECF8401B0228F6D99AE646
:101CA800FFF7E6F8801B0228CBD994E6236813F0E7
:101CB800205F02BFE36823F00303E360E36823F0D7
:101CC800887323F48033E360FFF7D2F8054623686E
:101CD8009B017FF545AEFFF7CBF8401B0228F6D9EC
:101CE80079E600BF007000402DE9F0410E46044639
:101CF80010B90120BDE8F081404A136803F00703DA
:101D08008B4229D32368D90731D421688A075BD449
:101D18003A4A136803F007039E425DD311F0040F9B
:101D2800374D64D10B0706D5AB68226923F460539D
:101D380043EAC203AB60FFF75DFDAB68314AC3F30A
:101D48000313BDE8F041D35C03F01F03D8402E4BCA
:101D580018600020FFF756B8136823F007030B43F9
:101D68001360136803F007039942C2D1CAE7626897
:101D7800234D032A2B681BD113F0007FB9D0AB6821
:101D880023F003031343AB60FFF772F841F288387E
:101D98000746AB68626803F00C03B3EB820FB4D05C
:101DA800FFF766F8C01B4045F3D90320BDE8F08172
:101DB800022A02D113F4003FE0E712B913F0020F30
:101DC800DCE713F4806FD9E70D4AA068936823F025
:101DD800F003034393609BE7136823F0070333433F
:101DE8001360136803F007039E4282D196E7AB683D
:101DF800E26823F4E0631343AB6093E700200240FA
:101E080000100240B735000820000020054B064AA4
:101E18009B68C3F30223D35C044A106803F01F03D2
:101E2800D840704700100240C73500082000002045
:101E3800054B064A9B68C3F3C223D35C044A106867
:101E480003F01F03D840704700100240C735000850
:101E580020000020F8B5454BDA6812F0030F05465C
:101E68000E461C4600682AD0DA6802F00302824255
:101E78003CD1002A3AD0DB686A68C3F30213013305
:101E8800934233D1236823F080632360FEF7F0FF89
:101E9800074623681A0132D4AF68002E36D0012EC7
:101EA80050D12269286922F4C002400822F4FE4277
:101EB800013842EA072242EA4052226132E002280F
:101EC80010D0032814D0012810D11B689F0738D5DB
:101ED800E3686A6823F07303013A184340EA021082
:101EE800E060CFE71B6813F4806FF1D10120F8BDE3
:101EF8001A689103ECD41B6813F4802FF5E7FEF7FA
:101F0800B7FFC01B0228C4D90320F8BD2169EB68BC
:101F180021F41F3121F4407141EA07211B0941EAEC
:101F280043412161236843F080632360FEF7A0FFEB
:101F3800064623681B0113D52369AA691343236145
:101F48000020F8BD2369686923F0C063400823F4C2
:101F5800FE43013843EA072343EA40632361E1E78C
:101F6800FEF786FF801B0228E3D9CDE70010024068
:101F7800F8B53D4BDA6812F0030F05460E461C46CD
:101F8800006828D0DA6802F0030282423AD1002AB7
:101F980038D0DB686A68C3F302130133934231D146
:101FA800236823F080532360FEF762FF0746236807
:101FB8009A0030D4A868002E34D06369296923F0C8
:101FC800C063490823F4FE43013943EA002343EA86
:101FD8004163636132E0022810D0032814D001283D
:101FE80010D11B689F0738D5E3686A6823F073032C
:101FF800013A184340EA0210E060D1E71B6813F485
:10200800806FF1D10120F8BD1A689103ECD41B68E8
:1020180013F4802FF5E7FEF72BFFC01B0228C6D963
:102028000320F8BD6269EB6822F41F3222F4407283
:1020380042EA00221B0942EA43426261236843F0F4
:1020480080532360FEF714FF064623689B0005D5DE
:1020580063696A69134363610020F8BDFEF708FFEE
:10206800801B0228F1D9DBE7001002402DE9F34775
:10207800066816F40066044624D0416EB1F5800F58
:102088002CD002D8C1B101261CE0B1F5000F0DD04B
:10209800B1F5400FF7D14D4A616ED2F8883023F47C
:1020A80040030B43C2F8883000260BE0474AD36848
:1020B80043F48033D360EEE70430FFF7CBFE0646E7
:1020C8000028E8D02368D80406D5A16EB1F1807F36
:1020D80074D008D8A9B10126354621E00021203066
:1020E800FFF746FFEBE7B1F1007F04D0B1F1407F85
:1020F800F1D1354609E0354AD36843F48033D360DB
:10210800F7E7201DFFF7A6FE0546002D5CD12F4AF4
:10211800A16ED2F8883023F040730B43C2F88830A0
:102128002368990340F14F81284FBB6DDA0040F1D5
:1021380076814FF00008DFF89890D9F8003043F422
:102148008073C9F80030FEF793FE8246D9F8003054
:10215800DB053FD5002D44D1D7F8903013F44073F8
:1021680015D0D4F88420934211D0D7F89030D7F8FE
:10217800902042F48032C7F89020D7F8902023F4BA
:10218800407322F48032C7F89020C7F89030D807FF
:1021980009D5FEF76DFE41F288390546D7F890302B
:1021A800990740F10981D7F89030D4F8842023F4B6
:1021B80040731343C7F89030354612E0002104F10C
:1021C8002000FFF7D5FE9FE72E46A9E70010024042
:1021D80000700040FEF74CFEA0EB0A000228B5D9BB
:1021E8000325B8F1000F03D0BB6D23F08053BB6506
:1021F8002368DA0708D59049A06BD1F8882022F027
:1022080003020243C1F888209F0708D58A49E06B7A
:10221800D1F8882022F00C020243C1F888205E071A
:1022280008D58549206CD1F8882022F03002024375
:10223800C1F88820180708D57F49606CD1F8882034
:1022480022F0C0020243C1F88820D90608D57A498D
:10225800A06CD1F8882022F440720243C1F888208B
:102268009A0608D57449E06CD1F8882022F44062B7
:102278000243C1F888209F0508D56F49E06DD1F861
:10228800882022F440220243C1F888205E0508D540
:102298006949206ED1F8882022F440120243C1F81F
:1022A8008820580608D56449206DD1F8882022F482
:1022B80040520243C1F88820190608D55E49606D6E
:1022C800D1F8882022F440420243C1F88820DA0578
:1022D80008D55949A06DD1F8882022F4403202432C
:1022E800C1F888209B040FD5534AE16ED2F8883094
:1022F80023F040630B43B1F1006FC2F8883064D11A
:10230800D36843F48013D36023681F030FD54A4A68
:10231800216FD2F8883023F040630B43B1F1006F8E
:10232800C2F888305CD1D36843F48013D360236843
:102338005E030FD5404A616FD2F8883023F04063BE
:102348000B43B1F1006FC2F8883054D1D36843F41D
:102358008013D3602368580412D53749A26FD1F887
:10236800883023F040531343B2F1805FC1F88830BE
:102378004CD10221201DFFF76DFD002818BF05462E
:102388002268110408D52C49E06FD1F8883023F071
:1023980080430343C1F88830D30309D5264AD4F8CB
:1023A8008010D2F8883023F000430B43C2F88830FD
:1023B800284602B0BDE8F087FEF75AFD401B4845A5
:1023C8007FF6ECAE0CE7354612E7B1F1806F9BD192
:1023D8000121201DFFF73EFD002818BF054693E7A1
:1023E800B1F1806FA3D10121201DFFF733FD002833
:1023F80018BF05469BE7B1F1806FABD10121201DC5
:10240800FFF728FD002818BF0546A3E7B2F1005FD3
:10241800B6D1022104F12000FFF7AAFDADE7BB6D9C
:1024280043F08053BB65BB6D03F080530193019B60
:102438004FF001087FE600BF001002400268C16942
:10244800F8B5044683680069156803436069034367
:10245800BA480B432840034313605368E06823F4E9
:10246800405303435360B64BA0699A421CBF236A8A
:102478001843936823F4306303439360B14B9A4243
:1024880019D103F55843B04AD3F8883003F0030351
:10249800B1F5004FD35C40F03881082B00F28F80F3
:1024A800DFE813F01A01CA00F9008D0014018D004D
:1024B8008D008D003600A54B9A4207D103F5E6330F
:1024C800A34AD3F8883003F00C03E1E7A14B9A4202
:1024D80023D103F5E433D3F8883003F03003102B0D
:1024E80000F0F1800BD8002B00F0F380B1F5004F1D
:1024F8004FF001024FF0000300F0F880A8E0202B15
:1025080000F0C680302BF1D1B1F5004F40F0B88013
:102518006068430803F58033C3E08F4B9A421ED1AD
:1025280003F5E233D3F8883003F0C003402B00F002
:10253800BB800AD87BB9824B9A4240F0CA80FFF729
:1025480065FC0023B0BB02463AE0802B00F09D807A
:10255800C02B00F0B0807A4B9A42C7D12FE07F4B56
:102568009A4211D103F5E033D3F8883003F440736D
:10257800B3F5807F00F09880DCD9B3F5007F00F0D8
:102588008480B3F5407FE4E76D4B9A42AED103F502
:10259800C833D3F8883003F44063B3F5806F00F094
:1025A8008380C7D9B3F5006F6FD0B3F5406FD0E71C
:1025B8006B480223626802EB4201814205D901227D
:1025C8000023236663661046F8BDB0EB023FF6D8D9
:1025D800082B2ED8DFE803F0052D1C2D242D2D2DDA
:1025E8002700FFF713FC62684FF480715608002734
:1025F800E1FB0067002330463946FDF7E9FD00227C
:10260800584BA0F540719942D9D82368D860D7E7CC
:102618005548550800230021401941F10001ECE715
:10262800FFF7E8F8DFE750080021002310F5000065
:10263800F3E701220020E3E7FFF7FAFB4EE0FFF79C
:10264800E5FB626800EB5203B3FBF2F39BB2002296
:10265800A3F110004FF6EF718842B0D82168CB6023
:10266800AEE7FFF7E5FBECE76068430803F57403A2
:1026780003F51053B3FBF0F3E8E7FFF7BBF8E0E727
:102688006068430803F50043F4E72D4B9A428FD066
:10269800B1F5004FE8D16068430803F1F47303F51E
:1026A8009043B3FBF0F31FE0254B9A420BD1FFF7A1
:1026B800A1F8042346E7224B9A427FF425AF4FF452
:1026C8000040082376E7B1F5004FD6D1FFF792F81E
:1026D80004E0B1F5004FB2D1FFF798FB61684A08F2
:1026E80002EB4003B3FBF1F39BB20022A3F110000D
:1026F8004FF6EF7188423FF662AF23F00F01206872
:10270800C3F342030B43C3605AE7082B3FF657AFA6
:1027180001A252F823F000BF472600086B260008E4
:1027280071260008C725000883260008C725000869
:10273800C7250008C725000889260008F369FFEFA8
:1027480000800040003801408A35000800440040FD
:102758008E35000800480040004C00400050004002
:102768000024F400FFFC0F00000024F4436ADA0799
:1027780010B506D50168846A4A6822F400322243FB
:102788004A609C0706D50168C46A4A6822F4803208
:1027980022434A60590706D50168046B4A6822F447
:1027A800802222434A601A0706D50168446B4A68AA
:1027B80022F4004222434A60DC0606D50168846B95
:1027C8008A6822F4805222438A60990606D50168F5
:1027D800C46B8A6822F4005222438A605A060FD5D5
:1027E8000168046C4A6822F480122243B4F5801F01
:1027F8004A6005D14A68446C22F4C00222434A6008
:102808001B0606D50268816C536823F400230B432A
:10281800536010BD2DE9F041069D04460F4616464B
:1028280098462168CA6937EA02030CBF01220022D0
:10283800B24202D00020BDE8F0816B1CF2D09DB9F5
:1028480023681A6822F4D0721A609A6822F001028A
:102858009A60202384F8713084F87230002384F859
:1028680070300320BDE8F081FEF702FBA0EB080002
:102878008542D6D2E4E72DE9F3411F4690F871303E
:10288800202B04460D4690464AD1002946D0002AFE
:1028980044D090F87030012B42D0012380F870307A
:1028A80000234367212380F87130FEF7E1FAA4F88A
:1028B80050800646A4F85280B4F85220009792B28D
:1028C800334652B940212046FFF7A4FF58B92023C8
:1028D80084F8713084F8700006E0002280212046D8
:1028E800FFF798FF18B1032002B0BDE8F081A36894
:1028F8002268B3F5805F0DD123695BB935F8023BD7
:10290800C3F308031385B4F85230013B9BB2A4F813
:102918005230D1E72B7813850135F4E70120E3E73E
:102928000220E1E72DE9F341984690F87230202B18
:1029380004460D46164660D100295CD0002A5AD0BC
:1029480090F87030012B58D0012380F870300023A4
:102958004367222380F87230FEF78AFAA368A4F846
:102968005860B3F5805F0746A4F85A6015D123690B
:102978008BB940F2FF13A4F85C30B4F85C60B4F88B
:102988005A0080B2B8B9202384F8723084F87000F5
:1029980002B0BDE8F081FF23EDE723B92369002BDE
:1029A800F9D07F23E7E7B3F1805FE6D12369002BF5
:1029B800F7D03F23DFE7CDF800803B4600222021F7
:1029C8002046FFF727FFD0B9A368B3F5805F2368D7
:1029D8000CD1226952B99B8C334025F8023BB4F8DC
:1029E8005A30013B9BB2A4F85A30C8E79B8C33405D
:1029F8002B700135F3E70120CAE70220C8E703205E
:102A0800C6E773B5044600264667FEF731FA236821
:102A18001B681A07054617D423681B685B070AD585
:102A28006FF07E43009300222B464FF4800120462E
:102A3800FFF7F0FEA0B92023002084F8713084F855
:102A4800700084F872300CE06FF07E4300933246D9
:102A580003464FF400112046FFF7DCFE0028DBD0C8
:102A6800032002B070BD10B5044660B390F8713011
:102A780003F0FF021BB980F8702000F095F9226876
:102A8800242384F87130136823F00103136020466F
:102A9800FFF7D4FC012816D0636A13B12046FFF76C
:102AA80065FE23685A6822F490425A609A6822F0B8
:102AB8002A029A601A6842F0010220461A60BDE8AC
:102AC8001040FFF79EBF012010BD0000094808B55F
:102AD800094B036000230371437143618361012340
:102AE8000362FEF735FA18B1BDE8084000F0D8B81F
:102AF80008BD00BF44000020003002400268084BB7
:102B08009A4282B00AD1A3F500539A6C42F48052DB
:102B18009A649B6C03F480530193019B02B0704745
:102B28000030024010B588B01422002103A800F03C
:102B380002FC184BDA6C42F00402DA64DA6C02F038
:102B480004020192019ADA6C42F00102DA64DB6C49
:102B580003F001030022029320214FF09040029BD2
:102B6800FEF752FD4FF40053039301240A4B0B4820
:102B7800049303A90594FEF765FC2023039303A996
:102B880000234FF09040049405930693FEF75AFCF7
:102B980008B010BD001002400000211000080048D5
:102BA80030B5B9B04422002105A800F0C4FB1422B6
:102BB8000021684600F0BFFB0021882216A800F01B
:102BC800BAFB4FF4807208921022099201221192E6
:102BD8000A220223129205A80722002413920593C1
:102BE8000F931093149315930325FEF757FE0F23A5
:102BF800042168468DE82800029403940494FFF7A2
:102C080073F816A8169524942594FFF72FFA4FF415
:102C18000070FEF70BFD39B030BD000008B5FEF7B7
:102C280009F9FFF7BDFFFFF77DFF00F09FF8FFF7F9
:102C38004DFF00F07DF84FF47A73042212491348CF
:102C4800FFF719FE20214FF09040FEF7E2FC4FF409
:102C5800FA60FEF713F94FF400510D48FEF7CEFC69
:102C680030B90C48FDF7A2FD0B4800F07FF9FEE7EC
:102C780020214FF09040FEF7CCFC0848FDF796FD68
:102C880000F040F9F3E700BF9B350008A8010020D9
:102C980000080048A035000868000020AB3500088F
:102CA800704700000A4B1A6E42F001021A661A6E4B
:102CB80082B002F001020092009A9A6D42F08052AE
:102CC8009A659B6D03F080530193019B02B0704796
:102CD800001002407047FEE7FEE7FEE7FEE7704798
:102CE80070477047FEF7BCB80F49D1F8883043F4F5
:102CF8007003C1F888300D4B1A68002042F00102B9
:102D08001A6098601A6822F0A85222F410221A60F9
:102D18004FF48052DA601A6822F480221A609861AF
:102D28004FF000638B60704700ED00E00010024038
:102D380008B50C480C4B4FF4E13E80E808400C22E3
:102D480000238360C360036142618361C3610362DE
:102D58004362FFF788FE18B1BDE80840FFF7A0BF3F
:102D680008BD00BF300100200038014008B50C48FC
:102D78000C4B4FF4E13E80E808400C2200238360AE
:102D8800C360036142618361C36103624362FFF709
:102D98006AFE18B1BDE80840FFF782BF08BD00BF52
:102DA800A80100200044004010B514228AB004464F
:102DB80000210DEB020000F0BEFA23681E4A934280
:102DC80022D11E4B1A6E42F480421A661A6E02F421
:102DD80080420192019ADA6C42F00102DA64DB6CFB
:102DE80003F001030293029B4FF4C063059302238F
:102DF80006930323089305A907234FF090400993EE
:102E0800FEF720FB0AB010BD0D4A9342FAD10B4BD6
:102E18009A6D42F400329A659A6D02F40032039278
:102E2800039ADA6C42F00102DA64DB6C03F0010306
:102E38000493049B0C23D9E700380140001002409A
:102E48000044004008B5FEF7F1F8002814BF072039
:102E5800002008BD144B70B516461A684FF6FF736C
:102E68009A4217BF114B124B03EA822303F1006306
:102E780018BF083BB34204460D4602D30D4B9E4291
:102E880003D8FEF7E5F8052070BD02460B46002082
:102E98003146FEF723F90028F3D1D6E900239D42F5
:102EA80008BF9442EDD170BDE075FF1F00FC3F00E4
:102EB800F8FF0F08FFA7000830B587B004460D4695
:102EC8001022002102A800F036FA0023019301A97C
:102ED800022302A8039305950494FEF73FFA10B164
:102EE800FEF7B6F8042007B030BD08B503460A4619
:102EF80000685968FFF7AEFF10B1FEF7A9F8072080
:102F080008BD000080B500AFFEF708FCFDF764FFC0
:102F1800084B00221A605A609A60074B1A6882F3BD
:102F28000888064A936004331B68BD46BDE88040A4
:102F3800184700BF10E000E000A8000800ED00E01E
:102F480070B5094A447800230C2505FB03F18E5C13
:102F5800A64204D10A4493689847002070BD013303
:102F6800072BF2D1082070BD1436000870B5104E3A
:102F78000446C8220021204600F0DDF94FF0FF3357
:102F8800012221463046FFF7CDFC21464FF0FF33A2
:102F980011F8012B3046FFF7C5FC2046FFF7D0FF9C
:102FA80008280546E5D10348FDF700FC284670BD12
:102FB800A80100200036000807B5A5238DF80430C5
:102FC8008DF805104FF0FF33022201A90248FFF7E0
:102FD80052FC03B05DF804FBA801002007B502A964
:102FE8007F2301F8013D01224FF0FF330248FFF72C
:102FF80042FC03B05DF804FBA80100208AB24FF040
:10300800FF3301460148FFF736BC00BFA801002086
:1030180001207047024B1868C0F30B00704700BFCF
:10302800002004E000B58BB06846FEF7BDF89DF8B7
:1030380010000BB05DF804FB30B50B4D01444FF0A8
:10304800FF33884204D1934214BF0320002030BDCF
:1030580010F8014B63402024002B4FEA4303B8BF0C
:103068006B40013CF8D1ECE7B71DC10413B50178FA
:10307800033904464258FFF7DFFF18B1FFF7AEFFE8
:1030880002B010BD21786078FFF796FFFFF7C0FF08
:1030980002AB012103F8010D1846FFF7AFFFEFE778
:1030A80013B504460B4B2178186801900339204664
:1030B8006258FFF7C1FF18B1FFF790FF02B010BDCB
:1030C80021786078FFF778FF04210DEB0100FFF706
:1030D80095FFF3E76833000813B501780339002337
:1030E8004258ADF806300446FFF7A6FF18B1FFF7BF
:1030F80075FF02B010BD21786078FFF75DFFFFF71C
:1031080089FF02AB022123F8020D1846FFF776FF6C
:10311800EFE713B501780339002342588DF80730DB
:103128000446FFF789FF18B1FFF758FF02B010BD3A
:1031380021786078FFF740FFFFF774FF02AB0121A9
:1031480003F8010D1846FFF759FFEFE710B50178AE
:10315800033904464258FFF76FFF18B1BDE8104025
:10316800FFF73CBF21786078FFF726FFBDE81040E5
:10317800FFF7C8BEF7B501788678C57807790339AF
:10318800002342588DF807300446FFF755FF18B161
:10319800FFF724FF03B0F0BD21786078FFF70CFF3C
:1031A800FFF750FE394645EA0620FFF785FE02ACD8
:1031B80004F8010DFDF74CFF01212046FFF71EFF23
:1031C800E8E700002DE9F043B7B02D4B00AF07F159
:1031D8000802044603F1100E164618685968154689
:1031E80003C5083373452A46F7D1A2792578D4F860
:1031F80002800023FB71D31D23F00703ADEB030D01
:10320800033DE11D684654F8059000F089F8314601
:1032180007F11800FDF7C2FA694607F11800FDF733
:10322800BFFA29464A462046FFF706FF054628B159
:10323800FFF7D4FEDC37BD46BDE8F083217860781F
:10324800FFF7BAFE012220214FF09040FEF7DCF98B
:10325800FFF7F8FD41466846FFF747FE07F1D80437
:1032680004F8D10DFDF7F4FE2A4620214FF09040D6
:10327800FEF7CAF901212046FFF7C0FEDAE700BFD2
:103288006C330008DFF834D0002103E00C4B5B58A6
:10329800435004310B480C4B42189A42F6D30B4A60
:1032A80002E0002342F8043B094B9A42F9D3FFF7A6
:1032B8001BFD00F011F8FFF7B1FCFEE700800120CC
:1032C800D036000800000020240000202400002040
:1032D80020020020FEE7000070B50D4E0D4CA41B27
:1032E800A4100025A54209D10B4E0C4C00F02CF877
:1032F800A41BA4100025A54205D170BD56F82530A1
:1033080098470135EEE756F8253098470135F2E73A
:10331800C8360008C8360008C8360008CC36000889
:1033280010B5431E0A44914200D110BD11F8014B5B
:1033380003F8014FF7E702440346934200D1704770
:1033480003F8011BF9E70000F8B500BFF8BC08BC9A
:103358009E467047F8B500BFF8BC08BC9E4670474B
:10336800515253542B7E151628AED2A6ABF71588AA
:1033780009CF4F3C8D01020408102040801B3652B3
:10338800096AD53036A538BF40A39E81F3D7FB7CA8
:10339800E339829B2FFF87348E4344C4DEE9CB5444
:1033A8007B9432A6C2233DEE4C950B42FAC34E08DD
:1033B8002EA16628D924B2765BA2496D8BD12572DD
:1033C800F8F66486689816D4A45CCC5D65B6926CF1
:1033D800704850FDEDB9DA5E154657A78D9D84906B
:1033E800D8AB008CBCD30AF7E45805B8B34506D06F
:1033F8002C1E8FCA3F0F02C1AFBD0301138A6B3A5F
:103408009111414F67DCEA97F2CFCEF0B4E673969C
:10341800AC7422E7AD3585E2F937E81C75DF6E47F5
:10342800F11A711D29C5896FB7620EAA18BE1BFC57
:10343800563E4BC6D279209ADBC0FE78CD5AF41F8F
:10344800DDA8338807C731B11210592780EC5F60B7
:10345800517FA919B54A0D2DE57A9F93C99CEFA014
:10346800E03B4DAE2AF5B0C8EBBB3C8353996117DE
:103478002B047EBA77D626E169146355210C7D6347
:103488007C777BF26B6FC53001672BFED7AB76CAB2
:1034980082C97DFA5947F0ADD4A2AF9CA472C0B7D7
:1034A800FD9326363FF7CC34A5E5F171D8311504E4
:1034B800C723C31896059A071280E2EB27B275094D
:1034C800832C1A1B6E5AA0523BD6B329E32F845380
:1034D800D100ED20FCB15B6ACBBE394A4C58CFD045
:1034E800EFAAFB434D338545F9027F503C9FA85115
:1034F800A3408F929D38F5BCB6DA2110FFF3D2CDE8
:103508000C13EC5F974417C4A77E3D645D19736084
:10351800814FDC222A908846EEB814DE5E0BDBE091
:10352800323A0A4906245CC2D3AC629195E479E741
:10353800C8376D8DD54EA96C56F4EA657AAE08BACF
:1035480078252E1CA6B4C6E8DD741F4BBD8B8A7087
:103558003EB5664803F60E613557B986C11D9EE132
:10356800F8981169D98E949B1E87E9CE5528DF8C6F
:10357800A1890DBFE6426841992D0FB054BB160DC5
:103588000A000104020800101010041010100210A4
:10359800101008686F6C6100426F6F746C6F616423
:1035A8006572004170706C69616374696F6E0000C8
:1035B80000000000000000010203040607080900DB
:1035C8000000000102030400A0860100400D030072
:1035D800801A060000350C0040420F0080841E004F
:1035E80000093D0000127A000024F40000366E0144
:1035F8000048E801006CDC02436F6D616E646F2067
:103608006E6F2076616C69646F00000051000000E5
:10361800683600087530000852000000733600084C
:10362800A9300008530000007F360008E130000888
:10363800540000008A3600081B31000855000000BD
:10364800953600085531000856000000A3360008DA
:103658007D31000857000000B2360008CD3100085F
:10366800424C5F4745545F56455200424C5F4745C0
:10367800545F48454C5000424C5F4745545F4349AE
:103688004400424C5F4745545F52445000424C5FEF
:10369800474F5F544F5F4144445200424C5F464C91
:1036A8004153485F455241534500424C5F4D454D9B
:0836B8005F5752495445000020
:0836C00048CBFF7F0100000070
:0436C800AD01000848
:0436CC008901000868
:1036D00000000000000000000000000000000000EA
:1036E00001000000000000000000000000000000D9
:0436F00000093D0090
:040000050800328D30
:00000001FF
